:100000000C9472000C9493000C9493000C94930045
:100010000C9493000C9493000C9493000C94930014
:100020000C9493000C9493000C9493000C94930004
:100030000C9493000C9493000C9493000C949300F4
:100040000C9493000C9493000C9493000C949300E4
:100050000C9493000C94A4030C9493000C949300C0
:100060000C9493000C9410020C94E4010C949300F3
:100070000C9493000C9493000C9493000C949300B4
:100080000C9493000C9493000C9493000C949300A4
:100090000C9493000C9493000C9493000C94930094
:1000A0000C9493000C9493000C9493000C94930084
:1000B0000C9493000C9493000C9493000C94930074
:1000C0000C9493000C9493000C9493000C94930064
:1000D0000C9493000C9493000C9493000C94930054
:1000E0000C94930011241FBECFEFD1E2DEBFCDBF31
:1000F00000E00CBF12E0A0E0B2E0E6ECF8E000E0C7
:100100000BBF02C007900D92AA34B107D9F712E0D5
:10011000AAE4B2E001C01D92A23DB107E1F70E943E
:10012000A9000C9462040C9400000BC000002FEC9A
:1001300037E0215030400000000021153105C9F79B
:100140000197009799F7089580B3806C80BB8E98D3
:1001500008950F9301E020E048E060E875E280E058
:100160000E9464010E9483030E94EB0080B3806CB4
:1001700080BB8E980E9419010E9498038823D1F3B6
:1001800080914A028F5F80934A0220C00E94190129
:100190000E9411018823A1F08F9A62E380E793E027
:1001A0000E94C70300E08AE090E00E94950062E3AD
:1001B00088EB91E00E94C7030F5F0535D9F2F3CFBA
:1001C0008F9860E080E090E00E94C70380914A022F
:1001D0008630E0F6CFCFECE7F0E080818166808367
:1001E000EAE7F0E080818768808310927B000895C1
:1001F00020917C0090917C00987F922B8770982BA7
:1002000090937C0080917A00806480937A001092B1
:100210007B0080917A0086FDFCCF8091790090E090
:10022000089520E030E0833310F021E030E0C90190
:10023000089581E00E94F80090E00895FF920F93E6
:100240001F93CF93DF93CDB7DEB764970FB6F894C3
:10025000DEBF0FBECDBF81E00E94F800F82E65E042
:100260000E94F203182F00E005C06EE280E00E94B9
:100270004C020F5F0117C9F74AE08E010F5F1F4F55
:10028000B8018F2D90E00E94D102B80180E00E9459
:10029000C00260E072E080E00E94C00264960FB687
:1002A000F894DEBF0FBECDBFDF91CF911F910F91AC
:1002B000FF90089578941092D0021092D10210927B
:1002C0008E0210928F020895CF92DF92EF92FF92EA
:1002D0000F931F93CF93DF93182F6B01F42EE22E11
:1002E0000E945A01112319F4C0ECD0E00CC0113067
:1002F00019F4C8ECD0E007C0123019F4C0EDD0E01A
:1003000002C0C0E3D1E01981186D960140E050E0D1
:1003100060E472E48FE090E00E94250421503040B8
:100320008C81822B8C83FE0132968A81897F8A831D
:100330001B7F198397E0F91641F098E0F91639F020
:1003400096E0F91631F4826003C0846001C08660D3
:100350008A8381E0E81649F0E81620F092E0E91679
:1003600051F406C080818F7C05C08081806302C00B
:10037000808180628083013019F0023039F403C03B
:100380008081877F02C0808188608083DF91CF91E8
:100390001F910F91FF90EF90DF90CF900895689894
:1003A000709A16BC14BC15BC6099FECF82E085BD66
:1003B000609BFECF15BC86B5869590E00197909323
:1003C000C5008093C40008951F920F920FB60F923C
:1003D00011248F939F93EF93FF939091D00280917C
:1003E000D102981731F48091C1008F7D8093C100B4
:1003F0000EC08091D1028F5F8F738093D102E09104
:10040000D102F0E0E057FD4F80818093C600FF915C
:10041000EF919F918F910F900FBE0F901F901895A5
:100420001F920F920FB60F9211242F933F938F9329
:100430009F93EF93FF93E0918E028091C600F0E0CE
:10044000E25BFD4F808380918E0220918F0290E0CD
:1004500001968F73907030E08217930731F080918E
:100460008E028F5F8F7380938E02FF91EF919F9129
:100470008F913F912F910F900FBE0F901F90189565
:1004800090918E0280918F0220E030E0981711F455
:1004900021E030E0C90108958091D0022091D1027D
:1004A00090E001968F73907030E082179307A1F36C
:1004B000E091D002F0E0E057FD4F60838091D002E0
:1004C0008F5F8F738093D0028091C1008062809390
:1004D000C10008951F93182F04C060E0812F0E946F
:1004E0004C0290918E0280918F029817B1F3E091A7
:1004F0008F02F0E0E25BFD4F808190918F029F5F61
:100500009F7390938F0290E01F910895FF920F9335
:100510001F93CF93DF93F82E8B01C0E0D0E080E0F3
:100520000E946A02682F8830A1F41C161D06BCF7D1
:10053000F801EC0FFD1F108221978F2D0E944C02B5
:1005400060E28F2D0E944C0268E08F2D0E944C02C9
:10055000E6CF8D3061F0C331D1050CF7F801EC0F17
:10056000FD1F80838F2D0E944C022196D8CFC00F93
:10057000D11F1882DF91CF911F910F91FF900895A5
:100580001F93CF93DF93182FEB0104C02196812F87
:100590000E944C0268816623C9F7DF91CF911F91B9
:1005A0000895CF92DF92EF92FF920F931F93CF9314
:1005B000DF939C01EB01892B21F480E3888319826E
:1005C00037C08B01FB01EE24FF24C42EDD24C901BA
:1005D000B6010E94FE038A30910514F0895C01C0C7
:1005E000805D8083C901B6010E94FE039B010894CF
:1005F000E11CF11C3196672B51F7FE01EE0DFF1D3A
:100600001082C701019762E070E00E9412046F5FE0
:100610007F4F20E030E008C09081D8018C9180832A
:100620009D938D012F5F3F4F319726173707A4F316
:10063000DF91CF911F910F91FF90EF90DF90CF90BE
:100640000895FC0140E050E00FC0892F90E0C09772
:100650009A0173E0220F331F7A95E1F7440F551F7B
:10066000420F531F480F591F9191892F80538A3091
:1006700060F3CA010895382F262F842F6AE00E9464
:10068000F203905D90934402842F0E94F2030E9433
:10069000F203905D90934302822F0E94F203905DDB
:1006A00090934702822F0E94F2030E94F203905D12
:1006B0009093460261E472E0832F0E94C002089585
:1006C0000F931F93182F062F63E072E00E94C00261
:1006D000E02FF0E0EE0FFF1FEF5CFD4F60817181B6
:1006E000812F0E94C0021F910F9108951F93182F10
:1006F00068E072E00E94C0026DE072E0812F0E940B
:10070000C0021F91089516BC84B5826084BD89EF34
:1007100087BD85B5836085BDEEE6F0E080818260AF
:1007200080837894E1E0F1E08081806480830895A3
:1007300080914D02882319F480E090E00895109292
:100740004D0281E090E008951F920F920FB60F9234
:1007500011242F938F939F9380914B0290914C0281
:10076000019690934C0280934B02885E934039F43B
:1007700010924C0210924B0281E080934D029F91A7
:100780008F912F910F900FBE0F901F9018951F9370
:10079000162F9C0140E050E069E07DE380E090E0AE
:1007A0000E9425042230310541055105BCF081E24B
:1007B0008093B0008FE08093B100822F81508093AE
:1007C000B3008091B3008695189FC001112464E6A0
:1007D00070E00E9412046093B40002C01092B10055
:1007E0001F910895991B79E004C0991F961708F08E
:1007F000961B881F7A95C9F780950895AA1BBB1B85
:1008000051E107C0AA1FBB1FA617B70710F0A61B10
:10081000B70B881F991F5A95A9F780959095BC0131
:10082000CD01089597FB092E07260AD077FD04D045
:10083000E5DF06D000201AF4709561957F4F08958A
:10084000F6F7909581959F4F089597FB092E052601
:100850000ED057FD04D014D00AD0001C38F45095A7
:100860004095309521953F4F4F4F5F4F0895F6F7D4
:1008700090958095709561957F4F8F4F9F4F08950C
:10088000A1E21A2EAA1BBB1BFD010DC0AA1FBB1F94
:10089000EE1FFF1FA217B307E407F50720F0A21B06
:1008A000B30BE40BF50B661F771F881F991F1A9473
:1008B00069F760957095809590959B01AC01BD019D
:0608C000CF010895FFCFF7
:1008C6000A0D001B5B313B001B5B324A001B5B4879
:1008D6000033306D0033316D0033326D0033336DCC
:1008E6000033346D0033356D0033366D0033376DAC
:1008F600001102150219021D022102250229022DEC
:0A090600021B5B30303B303048002C
:00000001FF
