:100000000C9472000C9493000C9493000C94930045
:100010000C9493000C9493000C9493000C94930014
:100020000C9493000C9493000C9493000C94930004
:100030000C9493000C9493000C9493000C949300F4
:100040000C9493000C9493000C9493000C949300E4
:100050000C9493000C943C010C9493000C9493002A
:100060000C9493000C9423030C94F7020C949300CB
:100070000C9493000C9493000C9493000C949300B4
:100080000C9493000C9493000C9493000C949300A4
:100090000C9493000C9493000C9493000C94930094
:1000A0000C9493000C9493000C9493000C94930084
:1000B0000C9493000C9493000C9493000C94930074
:1000C0000C9493000C9493000C9493000C94930064
:1000D0000C9493000C9493000C9493000C94930054
:1000E0000C94930011241FBECFEFD1E2DEBFCDBF31
:1000F00000E00CBF12E0A0E0B2E0EEE0FAE000E0C9
:100100000BBF02C007900D92A436B107D9F712E0D9
:10011000A4E6B2E001C01D92A63FB107E1F70E943C
:1001200095000C9406050C9400000F931F93CF9339
:10013000DF93CDB7DEB764970FB6F894DEBF0FBE7E
:10014000CDBF0E94E20201E020E048E060E875E2F5
:1001500080E00E94770280E00E94890441E065E02F
:1001600080E00E944E0460E072E080E00E94D303D1
:100170008091C4009091C5004AE08E010F5F1F4F2F
:10018000B8010E94E403B80180E00E94D30369E152
:1001900072E080E00E94D3030E94E70040E06BE23F
:1001A00086E00E9416020E943001882351F042E04E
:1001B00065E080E00E944E040E941D020E945102F0
:1001C000F2CF43E065E080E00E944E04ECCF16BC25
:1001D00084B5826084BD89EF87BD85B5836085BDA8
:1001E000EEE6F0E0808182608083789408952F921B
:1001F0003F924F925F926F927F928F929F92AF92B7
:10020000BF92CF92DF92EF92FF920F931F932090B5
:1002100064023090650240906602509067026090E0
:1002200068027090690280906A0290906B02222DA1
:10023000332D442D552D662D772D882D992D1F9109
:100240000F91FF90EF90DF90CF90BF90AF909F9075
:100250008F907F906F905F904F903F902F90089578
:1002600080916E02882319F480E090E00895109246
:100270006E0281E090E008951F920F920FB60F92E8
:1002800011248F929F92AF92BF92CF92DF92EF9202
:10029000FF920F931F932F933F934F935F936F930F
:1002A0007F938F939F93AF93BF93EF93FF93CF93DE
:1002B000DF93CDB7DEB72897DEBFCDBF8090640255
:1002C00090906502A0906602B0906702C0906802AC
:1002D000D0906902E0906A02F0906B0221E02983DD
:1002E0001A821B821C821D821E821F82188601E0D8
:1002F000080D81E0081508F080E01A81190DA1E0D1
:10030000191508F0A0E0810F91E0811708F090E046
:10031000A92B182F2B812A0DB1E02A1508F0B0E087
:100320008A2F820F91E0821708F090E0B92B282FD6
:100330003C813B0DA1E03B1508F0A0E08B2F830F23
:1003400091E0831708F090E0A92B382F4D814C0DD8
:10035000B1E04C1508F0B0E08A2F840F91E08417CB
:1003600008F090E0B92B482F5E815D0DA1E05D158E
:1003700008F0A0E08B2F850F91E0851708F090E042
:10038000A92B582F6F816E0DF1E06E1508F0F0E08B
:100390009A2F960F81E0961708F080E08F2B7885D2
:1003A0007F0D870F0093640210936502209366020D
:1003B00030936702409368025093690290936A02F7
:1003C00080936B0280916C0290916D0201969093E4
:1003D0006D0280936C02885E934039F410926D0236
:1003E00010926C0281E080936E022896F894DEBF32
:1003F000CDBFDF91CF91FF91EF91BF91AF919F91D1
:100400008F917F916F915F914F913F912F911F91AC
:100410000F91FF90EF90DF90CF90BF90AF909F90A3
:100420008F900F900FBE0F901F90189580937102C0
:1004300060936F02409370020895809170028F5F05
:10044000809370028C33A1F41092700280916F023D
:100450008F5F80936F028C3359F410926F028091FA
:1004600071028F5F80937102883110F010927102D7
:1004700008950F931F938C016AE070E00E94A2041C
:10048000605D80E00E945F03C8016AE070E00E9446
:10049000A204805D682F80E00E945F031F910F918E
:1004A00008958091710290E00E9439026AE380E031
:1004B0000E945F0380916F0290E00E9439026AE31C
:1004C00080E00E945F038091700290E00E943902F8
:1004D0006DE080E00E945F03089578941092F4022A
:1004E0001092F5021092B2021092B3020895CF92C8
:1004F000DF92EF92FF920F931F93CF93DF93182F0A
:100500006B01F42EE22E0E946D02112319F4C0EC4F
:10051000D0E00CC0113019F4C8ECD0E007C01230A4
:1005200019F4C0EDD0E002C0C0E3D1E01981186D2C
:10053000960140E050E060E472E48FE090E00E94B9
:10054000C904215030408C81822B8C83FE0132966D
:100550008A81897F8A831B7F198397E0F91641F08E
:1005600098E0F91639F096E0F91631F4826003C08C
:10057000846001C086608A8381E0E81649F0E8164D
:1005800020F092E0E91651F406C080818F7C05C00E
:100590008081806302C0808180628083013019F095
:1005A000023039F403C08081877F02C08081886077
:1005B0008083DF91CF911F910F91FF90EF90DF909B
:1005C000CF9008956898709A16BC14BC15BC6099B9
:1005D000FECF82E085BD609BFECF15BC86B58695BB
:1005E00090E001979093C5008093C40008951F92F6
:1005F0000F920FB60F9211248F939F93EF93FF9357
:100600009091F4028091F502981731F48091C10025
:100610008F7D8093C1000EC08091F5028F5F8F7334
:100620008093F502E091F502F0E0EC54FD4F8081FB
:100630008093C600FF91EF919F918F910F900FBE15
:100640000F901F9018951F920F920FB60F921124C2
:100650002F933F938F939F93EF93FF93E091B20279
:100660008091C600F0E0EE58FD4F80838091B20289
:100670002091B30290E001968F73907030E0821762
:10068000930731F08091B2028F5F8F738093B20233
:10069000FF91EF919F918F913F912F910F900FBEFE
:1006A0000F901F9018959091B2028091B30220E0B4
:1006B00030E0981711F421E030E0C90108958091ED
:1006C000F4022091F50290E001968F73907030E073
:1006D00082179307A1F3E091F402F0E0EC54FD4F90
:1006E00060838091F4028F5F8F738093F402809116
:1006F000C10080628093C10008951F93182F04C029
:1007000060E0812F0E945F039091B2028091B3025A
:100710009817B1F3E091B302F0E0EE58FD4F8081FD
:100720009091B3029F5F9F739093B30290E01F91EB
:100730000895FF920F931F93CF93DF93F82E8B01B1
:10074000C0E0D0E080E00E947D03682F8830A1F4F3
:100750001C161D06BCF7F801EC0FFD1F1082219737
:100760008F2D0E945F0360E28F2D0E945F0368E07F
:100770008F2D0E945F03E6CF8D3061F0C331D1052C
:100780000CF7F801EC0FFD1F80838F2D0E945F0393
:100790002196D8CFC00FD11F1882DF91CF911F9122
:1007A0000F91FF9008951F93CF93DF93182FEB01C4
:1007B00004C02196812F0E945F0368816623C9F7D8
:1007C000DF91CF911F910895CF92DF92EF92FF9228
:1007D0000F931F93CF93DF939C01EB01892B21F49F
:1007E00080E38883198237C08B01FB01EE24FF244C
:1007F000C42EDD24C901B6010E94A2048A309105ED
:1008000014F0895C01C0805D8083C901B6010E943B
:10081000A2049B010894E11CF11C3196672B51F74F
:10082000FE01EE0DFF1D1082C701019762E070E02E
:100830000E94B6046F5F7F4F20E030E008C09081D7
:10084000D8018C9180839D938D012F5F3F4F31970D
:1008500026173707A4F3DF91CF911F910F91FF90D7
:10086000EF90DF90CF900895FC0140E050E00FC082
:10087000892F90E0C0979A0173E0220F331F7A9579
:10088000E1F7440F551F420F531F480F591F919115
:10089000892F80538A3060F3CA010895382F262F9C
:1008A000842F6AE00E949604905D90935D02842FED
:1008B0000E9496040E949604905D90935C02822FA1
:1008C0000E949604905D90936002822F0E9496048D
:1008D0000E949604905D90935F026AE572E0832F18
:1008E0000E94D30308950F931F93182F062F6CE1D6
:1008F00072E00E94D303E02FF0E0EE0FFF1FE65BF3
:10090000FD4F60817181812F0E94D3031F910F9150
:1009100008951F93182F61E272E00E94D30366E2EC
:1009200072E0812F0E94D3031F910895991B79E0F3
:1009300004C0991F961708F0961B881F7A95C9F76F
:1009400080950895AA1BBB1B51E107C0AA1FBB1FBE
:10095000A617B70710F0A61BB70B881F991F5A954B
:10096000A9F780959095BC01CD01089597FB092EBC
:1009700007260AD077FD04D0E5DF06D000201AF460
:10098000709561957F4F0895F6F7909581959F4FEB
:10099000089597FB092E05260ED057FD04D014D0DC
:1009A0000AD0001C38F450954095309521953F4F62
:1009B0004F4F5F4F0895F6F790958095709561952C
:1009C0007F4F8F4F9F4F0895A1E21A2EAA1BBB1B8A
:1009D000FD010DC0AA1FBB1FEE1FFF1FA217B3070B
:1009E000E407F50720F0A21BB30BE40BF50B661F21
:1009F000771F881F991F1A9469F7609570958095E5
:0E0A000090959B01AC01BD01CF010895FFCF81
:100A0E004175746F62617564696E6720646F6E659F
:100A1E002E2055425252303D000A0D001B5B313BD9
:100A2E00001B5B324A001B5B480033306D003331D4
:100A3E006D0033326D0033336D0033346D0033355A
:100A4E006D0033366D0033376D002A022E023202EE
:100A5E0036023A023E02420246021B5B30303B3007
:040A6E00304800000C
:00000001FF
