:1000000071C0000081C000007FC000007DC0000002
:100010007BC0000079C0000077C0000075C0000000
:1000200073C0000071C000006FC000006DC0000010
:100030006BC0000069C0000067C0000065C0000020
:1000400063C0000061C000005FC000005DC0000030
:100050005BC0000059C0000057C0000055C0000040
:1000600053C0000051C000004FC000004DC0000050
:100070004BC0000049C0000047C0000045C0000060
:1000800043C0000041C000003FC000003DC0000070
:100090003BC0000039C0000037C0000035C0000080
:1000A00033C0000031C000002FC000002DC0000090
:1000B0002BC0000029C0000027C0000025C00000A0
:1000C00023C0000021C000001FC000001DC00000B0
:1000D0001BC0000019C0000017C0000015C00000C0
:1000E00013C0000011241FBECFEFD1E2DEBFCDBF91
:1000F00000E00CBF22E0A0E0B2E001C01D92AA30F7
:10010000B207E1F7C8D0F1C07BCF84E09AE0A4E663
:100110000000AA95E9F79A95D1F78A95B9F708955D
:1001200080E480BB80E881BB08957F9B18C08091EC
:100130000802811114C091E09093080240910402DA
:1001400050910502609106027091070240930002EF
:10015000509301026093020270930302089540914C
:10016000040250910502609106027091070280918D
:10017000000290910102A0910202B0910302481B7B
:10018000590B6A0B7B0B423351056105710578F001
:100190007F990FC080910802882371F010920802A5
:1001A000413653406105710530F481E0089580E0E7
:1001B000089580E0089582E00895EF92FF920F93F2
:1001C0001F93CF93DF93D0910902DD2309F447C039
:1001D000C0E00F2EFCE4EF2EF02D0F2EF5E4FF2EE5
:1001E000F02D06E413E4D0FF34C08C2FC23048F465
:1001F00010BBC11103C08898899A28C08998889A31
:1002000025C09EEF9C0F923048F400BBC23019F419
:1002100089988A9A1BC08A98899A18C09CEF9C0F6B
:10022000923048F4F0BAC43019F48A98889A0EC013
:1002300088988A9A0BC08650823040F4E0BAC63063
:1002400019F48A988B9A02C08B988A9A84E190E07C
:100250005CDFD695CF5FC83009F0C5CF02C080E81B
:1002600081BBDF91CF911F910F91FF90EF90089587
:100270000F931F93CF93DF93009741F08C01C0E061
:10028000D0E043DF21960C171D07D9F7DF91CF91FE
:100290001F910F91089544DF48DF813019F08230BB
:1002A00039F00BC0809109028F5F8093090205C06D
:1002B000809109028150809309027FDF85E090E000
:1002C000D7DF8091040290910502A0910602B091BF
:1002D00007020596A11DB11D8093040290930502AB
:0E02E000A0930602B0930702D7CFF894FFCF89
:00000001FF
