:100000000C9472000C9493000C9493000C94930045
:100010000C9493000C9493000C9493000C94930014
:100020000C9493000C9493000C9493000C94930004
:100030000C9493000C9493000C9493000C949300F4
:100040000C9493000C9493000C9493000C949300E4
:100050000C9493000C9493000C9493000C949300D4
:100060000C9493000C94AE010C9482010C949300B8
:100070000C9493000C9493000C9493000C949300B4
:100080000C9493000C9493000C9493000C949300A4
:100090000C9493000C9493000C9493000C94930094
:1000A0000C9493000C9493000C9493000C94930084
:1000B0000C9493000C9493000C9493000C94930074
:1000C0000C9493000C9493000C9493000C94930064
:1000D0000C9493000C9493000C9493000C94930054
:1000E0000C94930011241FBECFEFD1E2DEBFCDBF31
:1000F00000E00CBF12E0A0E0B2E0E4E2F7E000E0D4
:100100000BBF02C007900D92A836B107D9F712E0D5
:10011000A8E6B2E001C01D92AC3EB107E1F70E9433
:1001200095000C9491030C9400008F929F92AF92D3
:10013000BF92CF92DF92EF92FF920F931F93CF93D4
:10014000DF93CDB7DEB764970FB6F894DEBF0FBE6E
:10015000CDBF02E021E048E069E370E380E00E9467
:10016000170120E0822E22E0922E7E010894E11CED
:10017000F11C95E1A92E92E0B92E8BE1C82E82E008
:10018000D82E80E00E94080280E00E94140342E022
:1001900062E080E00E94D90263E080E00E94FE02FB
:1001A000B40180E00E945E0242E066E180E00E94CD
:1001B000D90262E080E00E94FE02B70180E00E9466
:1001C0002402C7010E94BF028C0140E1B7010E94D6
:1001D0006F0244E065E080E00E94D90264E080E0C4
:1001E0000E94FE02B50180E00E945E02B70180E03D
:1001F0000E945E0242E0B701C8010E946F0245E022
:1002000065E080E00E94D902B60180E00E945E02B3
:10021000B70180E00E945E02B4CF78941092EA02A7
:100220001092EB021092A8021092A9020895CF92A8
:10023000DF92EF92FF920F931F93CF93DF93182FCC
:100240006B01F42EE22E0E940D01112319F4C0EC73
:10025000D0E00CC0113019F4C8ECD0E007C0123067
:1002600019F4C0EDD0E002C0C0E3D1E01981186DEF
:10027000960140E050E060E472E48FE090E00E947C
:100280005403215030408C81822B8C83FE013296A6
:100290008A81897F8A831B7F198397E0F91641F051
:1002A00098E0F91639F096E0F91631F4826003C04F
:1002B000846001C086608A8381E0E81649F0E81610
:1002C00020F092E0E91651F406C080818F7C05C0D1
:1002D0008081806302C0808180628083013019F058
:1002E000023039F403C08081877F02C0808188603A
:1002F0008083DF91CF911F910F91FF90EF90DF905E
:10030000CF9008951F920F920FB60F9211248F93E2
:100310009F93EF93FF939091EA028091EB029817DD
:1003200031F48091C1008F7D8093C1000EC0809117
:10033000EB028F5F8F738093EB02E091EB02F0E0B2
:10034000E655FD4F80818093C600FF91EF919F910C
:100350008F910F900FBE0F901F9018951F920F92C4
:100360000FB60F9211242F933F938F939F93EF9388
:10037000FF93E091A8028091C600F0E0E859FD4F9C
:1003800080838091A8022091A90290E001968F734A
:10039000907030E08217930731F08091A8028F5F50
:1003A0008F738093A802FF91EF919F918F913F915E
:1003B0002F910F900FBE0F901F9018959091A8024B
:1003C0008091A90220E030E0981711F421E030E09C
:1003D000C90108958091EA022091EB0290E0019614
:1003E0008F73907030E082179307A1F3E091EA02D7
:1003F000F0E0E655FD4F60838091EA028F5F8F73D6
:100400008093EA028091C10080628093C1000895C8
:100410001F93182F04C060E0812F0E94EA01909181
:10042000A8028091A9029817B1F3E091A902F0E027
:10043000E859FD4F80819091A9029F5F9F7390932F
:10044000A90290E01F910895FF920F931F93CF93FD
:10045000DF93F82E8B01C0E0D0E080E00E9408021C
:10046000682F8830A1F41C161D06BCF7F801EC0FAC
:10047000FD1F108221978F2D0E94EA0160E28F2DCF
:100480000E94EA0168E08F2D0E94EA01E6CF8D30DC
:1004900061F0C331D1050CF7F801EC0FFD1F80832B
:1004A0008F2D0E94EA012196D8CFC00FD11F18824C
:1004B000DF91CF911F910F91FF9008951F93CF93DC
:1004C000DF93182FEB0104C02196812F0E94EA01CF
:1004D00068816623C9F7DF91CF911F910895CF926C
:1004E000DF92EF92FF920F931F93CF93DF939C01C4
:1004F000EB01892B21F480E38883198237C08B01BB
:10050000FB01EE24FF24C42EDD24C901B6010E94A4
:100510002D038A30910514F0895C01C0805D8083D1
:10052000C901B6010E942D039B010894E11CF11C36
:100530003196672B51F7FE01EE0DFF1D1082C701AA
:10054000019762E070E00E9441036F5F7F4F20E0FF
:1005500030E008C09081D8018C9180839D938D01FB
:100560002F5F3F4F319726173707A4F3DF91CF91C5
:100570001F910F91FF90EF90DF90CF900895FC01B5
:1005800040E050E00FC0892F90E0C0979A0173E0DF
:10059000220F331F7A95E1F7440F551F420F531F67
:1005A000480F591F9191892F80538A3060F3CA01F7
:1005B0000895382F262F842F6AE00E942103905D32
:1005C00090936202842F0E9421030E942103905D78
:1005D00090936102822F0E942103905D90936502A7
:1005E000822F0E9421030E942103905D9093640258
:1005F0006FE572E0832F0E945E0208950F931F93B0
:10060000182F062F61E272E00E945E02E02FF0E0F8
:10061000EE0FFF1FE15BFD4F60817181812F0E9412
:100620005E021F910F9108951F93182F66E272E0EA
:100630000E945E026BE272E0812F0E945E021F91B7
:100640000895991B79E004C0991F961708F0961B2E
:10065000881F7A95C9F780950895AA1BBB1B51E1A5
:1006600007C0AA1FBB1FA617B70710F0A61BB70B22
:10067000881F991F5A95A9F780959095BC01CD01C7
:10068000089597FB092E07260AD077FD04D0E5DFF1
:1006900006D000201AF4709561957F4F0895F6F703
:1006A000909581959F4F089597FB092E05260ED0B2
:1006B00057FD04D014D00AD0001C38F45095409552
:1006C000309521953F4F4F4F5F4F0895F6F7909526
:1006D0008095709561957F4F8F4F9F4F0895A1E250
:1006E0001A2EAA1BBB1BFD010DC0AA1FBB1FEE1FAC
:1006F000FF1FA217B307E407F50720F0A21BB30BF7
:10070000E40BF50B661F771F881F991F1A9469F772
:1007100060957095809590959B01AC01BD01CF01CE
:040720000895FFCF6A
:10072400496E74726F6475636520756E206E756DA5
:1007340065726F3A004865783A200042696E3A2043
:10074400001B5B313B001B5B324A001B5B480033E0
:10075400306D0033316D0033326D0033336D00334F
:10076400346D0033356D0033366D0033376D002F33
:1007740002330237023B023F02430247024B021B91
:080784005B30303B30304800CF
:00000001FF
